{
  "_format": "hh-sol-artifact-1",
  "contractName": "SafiScoreRegistry",
  "sourceName": "contracts/SafiScoreRegistry.sol",
  "abi": [
    {
      "inputs": [],
      "stateMutability": "nonpayable",
      "type": "constructor"
    },
    {
      "inputs": [
        {
          "internalType": "address",
          "name": "owner",
          "type": "address"
        }
      ],
      "name": "OwnableInvalidOwner",
      "type": "error"
    },
    {
      "inputs": [
        {
          "internalType": "address",
          "name": "account",
          "type": "address"
        }
      ],
      "name": "OwnableUnauthorizedAccount",
      "type": "error"
    },
    {
      "anonymous": false,
      "inputs": [
        {
          "indexed": true,
          "internalType": "address",
          "name": "anchor",
          "type": "address"
        }
      ],
      "name": "AnchorAuthorized",
      "type": "event"
    },
    {
      "anonymous": false,
      "inputs": [
        {
          "indexed": true,
          "internalType": "address",
          "name": "anchor",
          "type": "address"
        }
      ],
      "name": "AnchorRevoked",
      "type": "event"
    },
    {
      "anonymous": false,
      "inputs": [
        {
          "indexed": true,
          "internalType": "bytes32",
          "name": "attestationId",
          "type": "bytes32"
        },
        {
          "indexed": true,
          "internalType": "address",
          "name": "customer",
          "type": "address"
        },
        {
          "indexed": false,
          "internalType": "uint8",
          "name": "scoreBand",
          "type": "uint8"
        },
        {
          "indexed": false,
          "internalType": "uint256",
          "name": "expiresAt",
          "type": "uint256"
        }
      ],
      "name": "AttestationAnchored",
      "type": "event"
    },
    {
      "anonymous": false,
      "inputs": [
        {
          "indexed": true,
          "internalType": "bytes32",
          "name": "attestationId",
          "type": "bytes32"
        },
        {
          "indexed": true,
          "internalType": "address",
          "name": "customer",
          "type": "address"
        },
        {
          "indexed": false,
          "internalType": "string",
          "name": "reason",
          "type": "string"
        }
      ],
      "name": "AttestationRevoked",
      "type": "event"
    },
    {
      "anonymous": false,
      "inputs": [
        {
          "indexed": true,
          "internalType": "address",
          "name": "previousOwner",
          "type": "address"
        },
        {
          "indexed": true,
          "internalType": "address",
          "name": "newOwner",
          "type": "address"
        }
      ],
      "name": "OwnershipTransferred",
      "type": "event"
    },
    {
      "inputs": [
        {
          "internalType": "bytes32",
          "name": "attestationId",
          "type": "bytes32"
        },
        {
          "internalType": "address",
          "name": "customer",
          "type": "address"
        },
        {
          "internalType": "bytes32",
          "name": "proofHash",
          "type": "bytes32"
        },
        {
          "internalType": "bytes32",
          "name": "commitmentHash",
          "type": "bytes32"
        },
        {
          "internalType": "uint8",
          "name": "scoreBand",
          "type": "uint8"
        },
        {
          "internalType": "uint32",
          "name": "monthsOfHistory",
          "type": "uint32"
        },
        {
          "internalType": "uint32",
          "name": "merchantDiv",
          "type": "uint32"
        },
        {
          "internalType": "uint256",
          "name": "expiresAt",
          "type": "uint256"
        }
      ],
      "name": "anchorAttestation",
      "outputs": [],
      "stateMutability": "nonpayable",
      "type": "function"
    },
    {
      "inputs": [
        {
          "internalType": "address",
          "name": "anchor",
          "type": "address"
        }
      ],
      "name": "authorizeAnchor",
      "outputs": [],
      "stateMutability": "nonpayable",
      "type": "function"
    },
    {
      "inputs": [
        {
          "internalType": "address",
          "name": "",
          "type": "address"
        }
      ],
      "name": "authorizedAnchors",
      "outputs": [
        {
          "internalType": "bool",
          "name": "",
          "type": "bool"
        }
      ],
      "stateMutability": "view",
      "type": "function"
    },
    {
      "inputs": [
        {
          "internalType": "bytes32",
          "name": "attestationId",
          "type": "bytes32"
        }
      ],
      "name": "getAttestation",
      "outputs": [
        {
          "components": [
            {
              "internalType": "bytes32",
              "name": "proofHash",
              "type": "bytes32"
            },
            {
              "internalType": "bytes32",
              "name": "commitmentHash",
              "type": "bytes32"
            },
            {
              "internalType": "uint8",
              "name": "scoreBand",
              "type": "uint8"
            },
            {
              "internalType": "uint32",
              "name": "monthsOfHistory",
              "type": "uint32"
            },
            {
              "internalType": "uint32",
              "name": "merchantDiversity",
              "type": "uint32"
            },
            {
              "internalType": "uint256",
              "name": "issuedAt",
              "type": "uint256"
            },
            {
              "internalType": "uint256",
              "name": "expiresAt",
              "type": "uint256"
            },
            {
              "internalType": "bool",
              "name": "revoked",
              "type": "bool"
            },
            {
              "internalType": "address",
              "name": "customer",
              "type": "address"
            }
          ],
          "internalType": "struct SafiScoreRegistry.Attestation",
          "name": "",
          "type": "tuple"
        }
      ],
      "stateMutability": "view",
      "type": "function"
    },
    {
      "inputs": [
        {
          "internalType": "bytes32",
          "name": "attestationId",
          "type": "bytes32"
        }
      ],
      "name": "isValidAttestation",
      "outputs": [
        {
          "internalType": "bool",
          "name": "",
          "type": "bool"
        }
      ],
      "stateMutability": "view",
      "type": "function"
    },
    {
      "inputs": [],
      "name": "owner",
      "outputs": [
        {
          "internalType": "address",
          "name": "",
          "type": "address"
        }
      ],
      "stateMutability": "view",
      "type": "function"
    },
    {
      "inputs": [],
      "name": "renounceOwnership",
      "outputs": [],
      "stateMutability": "nonpayable",
      "type": "function"
    },
    {
      "inputs": [
        {
          "internalType": "address",
          "name": "anchor",
          "type": "address"
        }
      ],
      "name": "revokeAnchorAuth",
      "outputs": [],
      "stateMutability": "nonpayable",
      "type": "function"
    },
    {
      "inputs": [
        {
          "internalType": "bytes32",
          "name": "attestationId",
          "type": "bytes32"
        },
        {
          "internalType": "string",
          "name": "reason",
          "type": "string"
        }
      ],
      "name": "revokeAttestation",
      "outputs": [],
      "stateMutability": "nonpayable",
      "type": "function"
    },
    {
      "inputs": [
        {
          "internalType": "address",
          "name": "newOwner",
          "type": "address"
        }
      ],
      "name": "transferOwnership",
      "outputs": [],
      "stateMutability": "nonpayable",
      "type": "function"
    },
    {
      "inputs": [
        {
          "internalType": "bytes32",
          "name": "attestationId",
          "type": "bytes32"
        },
        {
          "internalType": "bytes32",
          "name": "proofHash",
          "type": "bytes32"
        }
      ],
      "name": "verifyAttestation",
      "outputs": [
        {
          "internalType": "bool",
          "name": "valid",
          "type": "bool"
        },
        {
          "components": [
            {
              "internalType": "bytes32",
              "name": "proofHash",
              "type": "bytes32"
            },
            {
              "internalType": "bytes32",
              "name": "commitmentHash",
              "type": "bytes32"
            },
            {
              "internalType": "uint8",
              "name": "scoreBand",
              "type": "uint8"
            },
            {
              "internalType": "uint32",
              "name": "monthsOfHistory",
              "type": "uint32"
            },
            {
              "internalType": "uint32",
              "name": "merchantDiversity",
              "type": "uint32"
            },
            {
              "internalType": "uint256",
              "name": "issuedAt",
              "type": "uint256"
            },
            {
              "internalType": "uint256",
              "name": "expiresAt",
              "type": "uint256"
            },
            {
              "internalType": "bool",
              "name": "revoked",
              "type": "bool"
            },
            {
              "internalType": "address",
              "name": "customer",
              "type": "address"
            }
          ],
          "internalType": "struct SafiScoreRegistry.Attestation",
          "name": "data",
          "type": "tuple"
        }
      ],
      "stateMutability": "view",
      "type": "function"
    }
  ],
  "bytecode": "0x608060405234801561001057600080fd5b50338061003757604051631e4fbdf760e01b81526000600482015260240160405180910390fd5b61004081610046565b50610096565b600080546001600160a01b038381166001600160a01b0319831681178455604051919092169283917f8be0079c531659141344cd1fd0a4f28419497f9722a3daafe3b4186f6b6457e09190a35050565b610d81806100a56000396000f3fe608060405234801561001057600080fd5b50600436106100a95760003560e01c8063a3112a6411610071578063a3112a6414610123578063af3317aa14610143578063b2be0d4a14610156578063d90ff70314610189578063e69ead0b1461019c578063f2fde38b146101af57600080fd5b8063271011c5146100ae5780634d74a573146100c35780636fccb581146100d6578063715018a6146101005780638da5cb5b14610108575b600080fd5b6100c16100bc366004610aeb565b6101c2565b005b6100c16100d1366004610b83565b610311565b6100e96100e4366004610b9e565b6103ad565b6040516100f7929190610c40565b60405180910390f35b6100c16104ac565b6000546040516001600160a01b0390911681526020016100f7565b610136610131366004610c57565b6104c0565b6040516100f79190610c70565b6100c1610151366004610b83565b610564565b610179610164366004610b83565b60026020526000908152604090205460ff1681565b60405190151581526020016100f7565b610179610197366004610c57565b6105b5565b6100c16101aa366004610c99565b610672565b6100c16101bd366004610b83565b6109e4565b600083815260016020526040812060038101549091036102295760405162461bcd60e51b815260206004820152601a60248201527f4174746573746174696f6e20646f6573206e6f7420657869737400000000000060448201526064015b60405180910390fd5b3360009081526002602052604090205460ff16806102605750336102556000546001600160a01b031690565b6001600160a01b0316145b6102ac5760405162461bcd60e51b815260206004820152601860248201527f4e6f7420617574686f72697a656420746f207265766f6b6500000000000000006044820152606401610220565b600581018054600160ff1990911617908190556040516101009091046001600160a01b03169085907f4c773cf71c981ad796defa3d174ce582f7b24d9b44b500b3b686cdd567c36abb906103039087908790610d1c565b60405180910390a350505050565b610319610a22565b6001600160a01b0381166103615760405162461bcd60e51b815260206004820152600f60248201526e496e76616c6964206164647265737360881b6044820152606401610220565b6001600160a01b038116600081815260026020526040808220805460ff19166001179055517f2dceac33cca130d91075d25fecc370597614d6a597e5db40a8ae591167c47cf09190a250565b60006103b7610a9f565b6000848152600160208181526040808420815161012081018352815481529381015492840192909252600282015460ff8082169285019290925263ffffffff6101008083048216606087015265010000000000909204166080850152600383015460a08501819052600484015460c0860152600590930154918216151560e08501526001600160a01b0391819004919091169083015290910361045f576000925090506104a5565b8060e0015115610474576000925090506104a5565b428160c00151101561048b576000925090506104a5565b8051841461049e576000925090506104a5565b6001925090505b9250929050565b6104b4610a22565b6104be6000610a4f565b565b6104c8610a9f565b50600090815260016020818152604092839020835161012081018552815481529281015491830191909152600281015460ff8082169484019490945263ffffffff6101008083048216606086015265010000000000909204166080840152600382015460a0840152600482015460c0840152600590910154928316151560e08301526001600160a01b0392819004929092169181019190915290565b61056c610a22565b6001600160a01b038116600081815260026020526040808220805460ff19169055517fa852895b731a96d78eb2f40911f52a79bf59b6175599c641f6dbc8588e61ff4f9190a250565b6000818152600160208181526040808420815161012081018352815481529381015492840192909252600282015460ff8082169285019290925263ffffffff6101008083048216606087015265010000000000909204166080850152600383015460a08501819052600484015460c0860152600590930154918216151560e08501526001600160a01b039181900491909116908301521580159061065b57508060e00151155b801561066b5750428160c0015110155b9392505050565b3360009081526002602052604090205460ff166106d15760405162461bcd60e51b815260206004820152601860248201527f4e6f7420616e20617574686f72697a656420616e63686f7200000000000000006044820152606401610220565b6001600160a01b0387166107275760405162461bcd60e51b815260206004820152601860248201527f496e76616c696420637573746f6d6572206164647265737300000000000000006044820152606401610220565b60018460ff161015801561073f575060058460ff1611155b6107845760405162461bcd60e51b815260206004820152601660248201527553636f72652062616e64206d75737420626520312d3560501b6044820152606401610220565b4281116107d35760405162461bcd60e51b815260206004820152601c60248201527f457870697279206d75737420626520696e2074686520667574757265000000006044820152606401610220565b600088815260016020526040902060030154156108325760405162461bcd60e51b815260206004820152601c60248201527f4174746573746174696f6e20616c726561647920616e63686f726564000000006044820152606401610220565b6040518061012001604052808781526020018681526020018560ff1681526020018463ffffffff1681526020018363ffffffff168152602001428152602001828152602001600015158152602001886001600160a01b0316815250600160008a8152602001908152602001600020600082015181600001556020820151816001015560408201518160020160006101000a81548160ff021916908360ff16021790555060608201518160020160016101000a81548163ffffffff021916908363ffffffff16021790555060808201518160020160056101000a81548163ffffffff021916908363ffffffff16021790555060a0820151816003015560c0820151816004015560e08201518160050160006101000a81548160ff0219169083151502179055506101008201518160050160016101000a8154816001600160a01b0302191690836001600160a01b03160217905550905050866001600160a01b0316887f6c3ba1a6229eee18402f5ee4574f49cb974ad2ff419c44fff56dfccbf9e835aa86846040516109d292919060ff929092168252602082015260400190565b60405180910390a35050505050505050565b6109ec610a22565b6001600160a01b038116610a1657604051631e4fbdf760e01b815260006004820152602401610220565b610a1f81610a4f565b50565b6000546001600160a01b031633146104be5760405163118cdaa760e01b8152336004820152602401610220565b600080546001600160a01b038381166001600160a01b0319831681178455604051919092169283917f8be0079c531659141344cd1fd0a4f28419497f9722a3daafe3b4186f6b6457e09190a35050565b6040805161012081018252600080825260208201819052918101829052606081018290526080810182905260a0810182905260c0810182905260e0810182905261010081019190915290565b600080600060408486031215610b0057600080fd5b83359250602084013567ffffffffffffffff80821115610b1f57600080fd5b818601915086601f830112610b3357600080fd5b813581811115610b4257600080fd5b876020828501011115610b5457600080fd5b6020830194508093505050509250925092565b80356001600160a01b0381168114610b7e57600080fd5b919050565b600060208284031215610b9557600080fd5b61066b82610b67565b60008060408385031215610bb157600080fd5b50508035926020909101359150565b805182526020810151602083015260ff604082015116604083015263ffffffff60608201511660608301526080810151610c02608084018263ffffffff169052565b5060a081015160a083015260c081015160c083015260e0810151610c2a60e084018215159052565b50610100908101516001600160a01b0316910152565b8215158152610140810161066b6020830184610bc0565b600060208284031215610c6957600080fd5b5035919050565b6101208101610c7f8284610bc0565b92915050565b803563ffffffff81168114610b7e57600080fd5b600080600080600080600080610100898b031215610cb657600080fd5b88359750610cc660208a01610b67565b96506040890135955060608901359450608089013560ff81168114610cea57600080fd5b9350610cf860a08a01610c85565b9250610d0660c08a01610c85565b915060e089013590509295985092959890939650565b60208152816020820152818360408301376000818301604090810191909152601f909201601f1916010191905056fea2646970667358221220115711bdd98af59d7cf4db46844fe473477d045f113c313a42f039fe7f4d31d064736f6c63430008180033",
  "linkReferences": {},
  "deployedLinkReferences": {}
}