{
  "_format": "hh-sol-artifact-1",
  "contractName": "MerchantRegistry",
  "sourceName": "contracts/MerchantRegistry.sol",
  "abi": [
    {
      "inputs": [],
      "stateMutability": "nonpayable",
      "type": "constructor"
    },
    {
      "inputs": [
        {
          "internalType": "address",
          "name": "owner",
          "type": "address"
        }
      ],
      "name": "OwnableInvalidOwner",
      "type": "error"
    },
    {
      "inputs": [
        {
          "internalType": "address",
          "name": "account",
          "type": "address"
        }
      ],
      "name": "OwnableUnauthorizedAccount",
      "type": "error"
    },
    {
      "anonymous": false,
      "inputs": [
        {
          "indexed": true,
          "internalType": "address",
          "name": "merchant",
          "type": "address"
        },
        {
          "indexed": false,
          "internalType": "string",
          "name": "reason",
          "type": "string"
        },
        {
          "indexed": false,
          "internalType": "uint256",
          "name": "timestamp",
          "type": "uint256"
        }
      ],
      "name": "MerchantRevoked",
      "type": "event"
    },
    {
      "anonymous": false,
      "inputs": [
        {
          "indexed": true,
          "internalType": "address",
          "name": "merchant",
          "type": "address"
        },
        {
          "indexed": false,
          "internalType": "string",
          "name": "name",
          "type": "string"
        },
        {
          "indexed": false,
          "internalType": "string",
          "name": "category",
          "type": "string"
        },
        {
          "indexed": false,
          "internalType": "uint256",
          "name": "timestamp",
          "type": "uint256"
        }
      ],
      "name": "MerchantVerified",
      "type": "event"
    },
    {
      "anonymous": false,
      "inputs": [
        {
          "indexed": true,
          "internalType": "address",
          "name": "previousOwner",
          "type": "address"
        },
        {
          "indexed": true,
          "internalType": "address",
          "name": "newOwner",
          "type": "address"
        }
      ],
      "name": "OwnershipTransferred",
      "type": "event"
    },
    {
      "anonymous": false,
      "inputs": [
        {
          "indexed": true,
          "internalType": "address",
          "name": "merchant",
          "type": "address"
        },
        {
          "indexed": false,
          "internalType": "uint8",
          "name": "newScore",
          "type": "uint8"
        }
      ],
      "name": "TrustScoreUpdated",
      "type": "event"
    },
    {
      "inputs": [],
      "name": "getMerchantCount",
      "outputs": [
        {
          "internalType": "uint256",
          "name": "",
          "type": "uint256"
        }
      ],
      "stateMutability": "view",
      "type": "function"
    },
    {
      "inputs": [
        {
          "internalType": "address",
          "name": "merchant",
          "type": "address"
        }
      ],
      "name": "getMerchantInfo",
      "outputs": [
        {
          "components": [
            {
              "internalType": "bool",
              "name": "verified",
              "type": "bool"
            },
            {
              "internalType": "uint8",
              "name": "trustScore",
              "type": "uint8"
            },
            {
              "internalType": "string",
              "name": "name",
              "type": "string"
            },
            {
              "internalType": "string",
              "name": "category",
              "type": "string"
            },
            {
              "internalType": "uint256",
              "name": "verifiedAt",
              "type": "uint256"
            },
            {
              "internalType": "uint256",
              "name": "revokedAt",
              "type": "uint256"
            }
          ],
          "internalType": "struct MerchantRegistry.MerchantInfo",
          "name": "",
          "type": "tuple"
        }
      ],
      "stateMutability": "view",
      "type": "function"
    },
    {
      "inputs": [
        {
          "internalType": "address",
          "name": "merchant",
          "type": "address"
        }
      ],
      "name": "isVerified",
      "outputs": [
        {
          "internalType": "bool",
          "name": "",
          "type": "bool"
        }
      ],
      "stateMutability": "view",
      "type": "function"
    },
    {
      "inputs": [],
      "name": "owner",
      "outputs": [
        {
          "internalType": "address",
          "name": "",
          "type": "address"
        }
      ],
      "stateMutability": "view",
      "type": "function"
    },
    {
      "inputs": [],
      "name": "renounceOwnership",
      "outputs": [],
      "stateMutability": "nonpayable",
      "type": "function"
    },
    {
      "inputs": [
        {
          "internalType": "address",
          "name": "merchant",
          "type": "address"
        },
        {
          "internalType": "string",
          "name": "reason",
          "type": "string"
        }
      ],
      "name": "revokeMerchant",
      "outputs": [],
      "stateMutability": "nonpayable",
      "type": "function"
    },
    {
      "inputs": [
        {
          "internalType": "address",
          "name": "newOwner",
          "type": "address"
        }
      ],
      "name": "transferOwnership",
      "outputs": [],
      "stateMutability": "nonpayable",
      "type": "function"
    },
    {
      "inputs": [
        {
          "internalType": "address",
          "name": "merchant",
          "type": "address"
        },
        {
          "internalType": "uint8",
          "name": "newScore",
          "type": "uint8"
        }
      ],
      "name": "updateTrustScore",
      "outputs": [],
      "stateMutability": "nonpayable",
      "type": "function"
    },
    {
      "inputs": [
        {
          "internalType": "address",
          "name": "merchant",
          "type": "address"
        },
        {
          "internalType": "string",
          "name": "name",
          "type": "string"
        },
        {
          "internalType": "string",
          "name": "category",
          "type": "string"
        },
        {
          "internalType": "uint8",
          "name": "trustScore",
          "type": "uint8"
        }
      ],
      "name": "verifyMerchant",
      "outputs": [],
      "stateMutability": "nonpayable",
      "type": "function"
    }
  ],
  "bytecode": "0x608060405234801561001057600080fd5b50338061003757604051631e4fbdf760e01b81526000600482015260240160405180910390fd5b61004081610046565b50610096565b600080546001600160a01b038381166001600160a01b0319831681178455604051919092169283917f8be0079c531659141344cd1fd0a4f28419497f9722a3daafe3b4186f6b6457e09190a35050565b610d2f806100a56000396000f3fe608060405234801561001057600080fd5b50600436106100935760003560e01c806344d4aeb01161006657806344d4aeb0146100fc578063715018a61461010d5780638da5cb5b14610115578063b9209e3314610130578063f2fde38b1461016c57600080fd5b80630e733ef11461009857806314641080146100c1578063196b42be146100d65780633e16a0fe146100e9575b600080fd5b6100ab6100a63660046108c6565b61017f565b6040516100b8919061092e565b60405180910390f35b6100d46100cf3660046109b2565b61033c565b005b6100d46100e4366004610a2e565b610401565b6100d46100f7366004610abe565b61070a565b6002546040519081526020016100b8565b6100d46107db565b6000546040516001600160a01b0390911681526020016100b8565b61015c61013e3660046108c6565b6001600160a01b031660009081526001602052604090205460ff1690565b60405190151581526020016100b8565b6100d461017a3660046108c6565b6107ef565b6101bd6040518060c00160405280600015158152602001600060ff168152602001606081526020016060815260200160008152602001600081525090565b6001600160a01b038216600090815260016020818152604092839020835160c081018552815460ff8082161515835261010090910416928101929092529182018054919384019161020d90610b11565b80601f016020809104026020016040519081016040528092919081815260200182805461023990610b11565b80156102865780601f1061025b57610100808354040283529160200191610286565b820191906000526020600020905b81548152906001019060200180831161026957829003601f168201915b5050505050815260200160028201805461029f90610b11565b80601f01602080910402602001604051908101604052809291908181526020018280546102cb90610b11565b80156103185780601f106102ed57610100808354040283529160200191610318565b820191906000526020600020905b8154815290600101906020018083116102fb57829003601f168201915b50505050508152602001600382015481526020016004820154815250509050919050565b61034461082d565b60648160ff1611156103995760405162461bcd60e51b8152602060048201526019602482015278054727573742073636f7265206d75737420626520302d31303603c1b60448201526064015b60405180910390fd5b6001600160a01b038216600081815260016020908152604091829020805461ff00191661010060ff87169081029190911790915591519182527f605e85b1858a9eee2e296a4bb5bfcf48b2e328370c2c9ddeb0d76e5cce46a5e5910160405180910390a25050565b61040961082d565b6001600160a01b03861661045f5760405162461bcd60e51b815260206004820152601860248201527f496e76616c6964206d65726368616e74206164647265737300000000000000006044820152606401610390565b8361049c5760405162461bcd60e51b815260206004820152600d60248201526c13985b59481c995c5d5a5c9959609a1b6044820152606401610390565b816104dd5760405162461bcd60e51b815260206004820152601160248201527010d85d1959dbdc9e481c995c5d5a5c9959607a1b6044820152606401610390565b60648160ff16111561052d5760405162461bcd60e51b8152602060048201526019602482015278054727573742073636f7265206d75737420626520302d31303603c1b6044820152606401610390565b6001600160a01b03861660009081526001602052604090205460ff1661059957600280546001810182556000919091527f405787fa12a823e0f2b7631cc41b3ba8828b3321ca811111fa75cd3aa3bb5ace0180546001600160a01b0319166001600160a01b0388161790555b6040518060c001604052806001151581526020018260ff16815260200186868080601f016020809104026020016040519081016040528093929190818152602001838380828437600092019190915250505090825250604080516020601f870181900481028201810190925285815291810191908690869081908401838280828437600092018290525093855250504260208085019190915260409384018390526001600160a01b038b168352600180825292849020855181549287015161ffff1990931690151561ff0019161761010060ff90931692909202919091178155928401519183019161068c915082610bb2565b50606082015160028201906106a19082610bb2565b506080820151816003015560a08201518160040155905050856001600160a01b03167f6594c9e55f77b49548112971096863b47f7f4102d558149f9bbf62afbdffd6a486868686426040516106fa959493929190610c9b565b60405180910390a2505050505050565b61071261082d565b6001600160a01b03831660009081526001602052604090205460ff166107725760405162461bcd60e51b815260206004820152601560248201527413595c98da185b9d081b9bdd081d995c9a599a5959605a1b6044820152606401610390565b6001600160a01b03831660008181526001602052604090819020805460ff1916815542600490910181905590517f2adad049b34dd8656748254539adeba99eb97cd61c5583ee32ae6bc13a1429bb916107ce9186918691610cd5565b60405180910390a2505050565b6107e361082d565b6107ed600061085a565b565b6107f761082d565b6001600160a01b03811661082157604051631e4fbdf760e01b815260006004820152602401610390565b61082a8161085a565b50565b6000546001600160a01b031633146107ed5760405163118cdaa760e01b8152336004820152602401610390565b600080546001600160a01b038381166001600160a01b0319831681178455604051919092169283917f8be0079c531659141344cd1fd0a4f28419497f9722a3daafe3b4186f6b6457e09190a35050565b80356001600160a01b03811681146108c157600080fd5b919050565b6000602082840312156108d857600080fd5b6108e1826108aa565b9392505050565b6000815180845260005b8181101561090e576020818501810151868301820152016108f2565b506000602082860101526020601f19601f83011685010191505092915050565b6020815281511515602082015260ff60208301511660408201526000604083015160c0606084015261096360e08401826108e8565b90506060840151601f1984830301608085015261098082826108e8565b915050608084015160a084015260a084015160c08401528091505092915050565b803560ff811681146108c157600080fd5b600080604083850312156109c557600080fd5b6109ce836108aa565b91506109dc602084016109a1565b90509250929050565b60008083601f8401126109f757600080fd5b50813567ffffffffffffffff811115610a0f57600080fd5b602083019150836020828501011115610a2757600080fd5b9250929050565b60008060008060008060808789031215610a4757600080fd5b610a50876108aa565b9550602087013567ffffffffffffffff80821115610a6d57600080fd5b610a798a838b016109e5565b90975095506040890135915080821115610a9257600080fd5b50610a9f89828a016109e5565b9094509250610ab29050606088016109a1565b90509295509295509295565b600080600060408486031215610ad357600080fd5b610adc846108aa565b9250602084013567ffffffffffffffff811115610af857600080fd5b610b04868287016109e5565b9497909650939450505050565b600181811c90821680610b2557607f821691505b602082108103610b4557634e487b7160e01b600052602260045260246000fd5b50919050565b634e487b7160e01b600052604160045260246000fd5b601f821115610bad576000816000526020600020601f850160051c81016020861015610b8a5750805b601f850160051c820191505b81811015610ba957828155600101610b96565b5050505b505050565b815167ffffffffffffffff811115610bcc57610bcc610b4b565b610be081610bda8454610b11565b84610b61565b602080601f831160018114610c155760008415610bfd5750858301515b600019600386901b1c1916600185901b178555610ba9565b600085815260208120601f198616915b82811015610c4457888601518255948401946001909101908401610c25565b5085821015610c625787850151600019600388901b60f8161c191681555b5050505050600190811b01905550565b81835281816020850137506000828201602090810191909152601f909101601f19169091010190565b606081526000610caf606083018789610c72565b8281036020840152610cc2818688610c72565b9150508260408301529695505050505050565b604081526000610ce9604083018587610c72565b905082602083015294935050505056fea26469706673582212206b75becf4aff06d77302d6d369b1c4fed0311ff4a37916ec5679622e90e6ef4764736f6c63430008180033",
  "linkReferences": {},
  "deployedLinkReferences": {}
}